{
  "_format": "hh-sol-artifact-1",
  "contractName": "PolymathAxons",
  "sourceName": "contracts/PolymathAxons.sol",
  "abi": [
    {
      "inputs": [
        {
          "internalType": "address",
          "name": "initialOwner",
          "type": "address"
        }
      ],
      "stateMutability": "nonpayable",
      "type": "constructor"
    },
    {
      "inputs": [],
      "name": "CheckpointUnorderedInsertion",
      "type": "error"
    },
    {
      "inputs": [],
      "name": "ECDSAInvalidSignature",
      "type": "error"
    },
    {
      "inputs": [
        {
          "internalType": "uint256",
          "name": "length",
          "type": "uint256"
        }
      ],
      "name": "ECDSAInvalidSignatureLength",
      "type": "error"
    },
    {
      "inputs": [
        {
          "internalType": "bytes32",
          "name": "s",
          "type": "bytes32"
        }
      ],
      "name": "ECDSAInvalidSignatureS",
      "type": "error"
    },
    {
      "inputs": [
        {
          "internalType": "uint256",
          "name": "increasedSupply",
          "type": "uint256"
        },
        {
          "internalType": "uint256",
          "name": "cap",
          "type": "uint256"
        }
      ],
      "name": "ERC20ExceededSafeSupply",
      "type": "error"
    },
    {
      "inputs": [
        {
          "internalType": "address",
          "name": "spender",
          "type": "address"
        },
        {
          "internalType": "uint256",
          "name": "allowance",
          "type": "uint256"
        },
        {
          "internalType": "uint256",
          "name": "needed",
          "type": "uint256"
        }
      ],
      "name": "ERC20InsufficientAllowance",
      "type": "error"
    },
    {
      "inputs": [
        {
          "internalType": "address",
          "name": "sender",
          "type": "address"
        },
        {
          "internalType": "uint256",
          "name": "balance",
          "type": "uint256"
        },
        {
          "internalType": "uint256",
          "name": "needed",
          "type": "uint256"
        }
      ],
      "name": "ERC20InsufficientBalance",
      "type": "error"
    },
    {
      "inputs": [
        {
          "internalType": "address",
          "name": "approver",
          "type": "address"
        }
      ],
      "name": "ERC20InvalidApprover",
      "type": "error"
    },
    {
      "inputs": [
        {
          "internalType": "address",
          "name": "receiver",
          "type": "address"
        }
      ],
      "name": "ERC20InvalidReceiver",
      "type": "error"
    },
    {
      "inputs": [
        {
          "internalType": "address",
          "name": "sender",
          "type": "address"
        }
      ],
      "name": "ERC20InvalidSender",
      "type": "error"
    },
    {
      "inputs": [
        {
          "internalType": "address",
          "name": "spender",
          "type": "address"
        }
      ],
      "name": "ERC20InvalidSpender",
      "type": "error"
    },
    {
      "inputs": [
        {
          "internalType": "uint256",
          "name": "deadline",
          "type": "uint256"
        }
      ],
      "name": "ERC2612ExpiredSignature",
      "type": "error"
    },
    {
      "inputs": [
        {
          "internalType": "address",
          "name": "signer",
          "type": "address"
        },
        {
          "internalType": "address",
          "name": "owner",
          "type": "address"
        }
      ],
      "name": "ERC2612InvalidSigner",
      "type": "error"
    },
    {
      "inputs": [
        {
          "internalType": "uint256",
          "name": "timepoint",
          "type": "uint256"
        },
        {
          "internalType": "uint48",
          "name": "clock",
          "type": "uint48"
        }
      ],
      "name": "ERC5805FutureLookup",
      "type": "error"
    },
    {
      "inputs": [],
      "name": "ERC6372InconsistentClock",
      "type": "error"
    },
    {
      "inputs": [],
      "name": "EnforcedPause",
      "type": "error"
    },
    {
      "inputs": [],
      "name": "ExpectedPause",
      "type": "error"
    },
    {
      "inputs": [
        {
          "internalType": "address",
          "name": "account",
          "type": "address"
        },
        {
          "internalType": "uint256",
          "name": "currentNonce",
          "type": "uint256"
        }
      ],
      "name": "InvalidAccountNonce",
      "type": "error"
    },
    {
      "inputs": [],
      "name": "InvalidShortString",
      "type": "error"
    },
    {
      "inputs": [
        {
          "internalType": "address",
          "name": "owner",
          "type": "address"
        }
      ],
      "name": "OwnableInvalidOwner",
      "type": "error"
    },
    {
      "inputs": [
        {
          "internalType": "address",
          "name": "account",
          "type": "address"
        }
      ],
      "name": "OwnableUnauthorizedAccount",
      "type": "error"
    },
    {
      "inputs": [
        {
          "internalType": "uint8",
          "name": "bits",
          "type": "uint8"
        },
        {
          "internalType": "uint256",
          "name": "value",
          "type": "uint256"
        }
      ],
      "name": "SafeCastOverflowedUintDowncast",
      "type": "error"
    },
    {
      "inputs": [
        {
          "internalType": "string",
          "name": "str",
          "type": "string"
        }
      ],
      "name": "StringTooLong",
      "type": "error"
    },
    {
      "inputs": [
        {
          "internalType": "uint256",
          "name": "expiry",
          "type": "uint256"
        }
      ],
      "name": "VotesExpiredSignature",
      "type": "error"
    },
    {
      "anonymous": false,
      "inputs": [
        {
          "indexed": true,
          "internalType": "address",
          "name": "owner",
          "type": "address"
        },
        {
          "indexed": true,
          "internalType": "address",
          "name": "spender",
          "type": "address"
        },
        {
          "indexed": false,
          "internalType": "uint256",
          "name": "value",
          "type": "uint256"
        }
      ],
      "name": "Approval",
      "type": "event"
    },
    {
      "anonymous": false,
      "inputs": [
        {
          "indexed": true,
          "internalType": "address",
          "name": "delegator",
          "type": "address"
        },
        {
          "indexed": true,
          "internalType": "address",
          "name": "fromDelegate",
          "type": "address"
        },
        {
          "indexed": true,
          "internalType": "address",
          "name": "toDelegate",
          "type": "address"
        }
      ],
      "name": "DelegateChanged",
      "type": "event"
    },
    {
      "anonymous": false,
      "inputs": [
        {
          "indexed": true,
          "internalType": "address",
          "name": "delegate",
          "type": "address"
        },
        {
          "indexed": false,
          "internalType": "uint256",
          "name": "previousVotes",
          "type": "uint256"
        },
        {
          "indexed": false,
          "internalType": "uint256",
          "name": "newVotes",
          "type": "uint256"
        }
      ],
      "name": "DelegateVotesChanged",
      "type": "event"
    },
    {
      "anonymous": false,
      "inputs": [],
      "name": "EIP712DomainChanged",
      "type": "event"
    },
    {
      "anonymous": false,
      "inputs": [
        {
          "indexed": true,
          "internalType": "address",
          "name": "previousOwner",
          "type": "address"
        },
        {
          "indexed": true,
          "internalType": "address",
          "name": "newOwner",
          "type": "address"
        }
      ],
      "name": "OwnershipTransferred",
      "type": "event"
    },
    {
      "anonymous": false,
      "inputs": [
        {
          "indexed": false,
          "internalType": "address",
          "name": "account",
          "type": "address"
        }
      ],
      "name": "Paused",
      "type": "event"
    },
    {
      "anonymous": false,
      "inputs": [
        {
          "indexed": true,
          "internalType": "address",
          "name": "from",
          "type": "address"
        },
        {
          "indexed": true,
          "internalType": "address",
          "name": "to",
          "type": "address"
        },
        {
          "indexed": false,
          "internalType": "uint256",
          "name": "value",
          "type": "uint256"
        }
      ],
      "name": "Transfer",
      "type": "event"
    },
    {
      "anonymous": false,
      "inputs": [
        {
          "indexed": false,
          "internalType": "address",
          "name": "account",
          "type": "address"
        }
      ],
      "name": "Unpaused",
      "type": "event"
    },
    {
      "inputs": [],
      "name": "CLOCK_MODE",
      "outputs": [
        {
          "internalType": "string",
          "name": "",
          "type": "string"
        }
      ],
      "stateMutability": "view",
      "type": "function"
    },
    {
      "inputs": [],
      "name": "DOMAIN_SEPARATOR",
      "outputs": [
        {
          "internalType": "bytes32",
          "name": "",
          "type": "bytes32"
        }
      ],
      "stateMutability": "view",
      "type": "function"
    },
    {
      "inputs": [
        {
          "internalType": "address",
          "name": "owner",
          "type": "address"
        },
        {
          "internalType": "address",
          "name": "spender",
          "type": "address"
        }
      ],
      "name": "allowance",
      "outputs": [
        {
          "internalType": "uint256",
          "name": "",
          "type": "uint256"
        }
      ],
      "stateMutability": "view",
      "type": "function"
    },
    {
      "inputs": [
        {
          "internalType": "address",
          "name": "spender",
          "type": "address"
        },
        {
          "internalType": "uint256",
          "name": "value",
          "type": "uint256"
        }
      ],
      "name": "approve",
      "outputs": [
        {
          "internalType": "bool",
          "name": "",
          "type": "bool"
        }
      ],
      "stateMutability": "nonpayable",
      "type": "function"
    },
    {
      "inputs": [
        {
          "internalType": "address",
          "name": "account",
          "type": "address"
        }
      ],
      "name": "balanceOf",
      "outputs": [
        {
          "internalType": "uint256",
          "name": "",
          "type": "uint256"
        }
      ],
      "stateMutability": "view",
      "type": "function"
    },
    {
      "inputs": [
        {
          "internalType": "address",
          "name": "account",
          "type": "address"
        },
        {
          "internalType": "uint32",
          "name": "pos",
          "type": "uint32"
        }
      ],
      "name": "checkpoints",
      "outputs": [
        {
          "components": [
            {
              "internalType": "uint48",
              "name": "_key",
              "type": "uint48"
            },
            {
              "internalType": "uint208",
              "name": "_value",
              "type": "uint208"
            }
          ],
          "internalType": "struct Checkpoints.Checkpoint208",
          "name": "",
          "type": "tuple"
        }
      ],
      "stateMutability": "view",
      "type": "function"
    },
    {
      "inputs": [],
      "name": "clock",
      "outputs": [
        {
          "internalType": "uint48",
          "name": "",
          "type": "uint48"
        }
      ],
      "stateMutability": "view",
      "type": "function"
    },
    {
      "inputs": [],
      "name": "decimals",
      "outputs": [
        {
          "internalType": "uint8",
          "name": "",
          "type": "uint8"
        }
      ],
      "stateMutability": "view",
      "type": "function"
    },
    {
      "inputs": [
        {
          "internalType": "address",
          "name": "delegatee",
          "type": "address"
        }
      ],
      "name": "delegate",
      "outputs": [],
      "stateMutability": "nonpayable",
      "type": "function"
    },
    {
      "inputs": [
        {
          "internalType": "address",
          "name": "delegatee",
          "type": "address"
        },
        {
          "internalType": "uint256",
          "name": "nonce",
          "type": "uint256"
        },
        {
          "internalType": "uint256",
          "name": "expiry",
          "type": "uint256"
        },
        {
          "internalType": "uint8",
          "name": "v",
          "type": "uint8"
        },
        {
          "internalType": "bytes32",
          "name": "r",
          "type": "bytes32"
        },
        {
          "internalType": "bytes32",
          "name": "s",
          "type": "bytes32"
        }
      ],
      "name": "delegateBySig",
      "outputs": [],
      "stateMutability": "nonpayable",
      "type": "function"
    },
    {
      "inputs": [
        {
          "internalType": "address",
          "name": "account",
          "type": "address"
        }
      ],
      "name": "delegates",
      "outputs": [
        {
          "internalType": "address",
          "name": "",
          "type": "address"
        }
      ],
      "stateMutability": "view",
      "type": "function"
    },
    {
      "inputs": [],
      "name": "eip712Domain",
      "outputs": [
        {
          "internalType": "bytes1",
          "name": "fields",
          "type": "bytes1"
        },
        {
          "internalType": "string",
          "name": "name",
          "type": "string"
        },
        {
          "internalType": "string",
          "name": "version",
          "type": "string"
        },
        {
          "internalType": "uint256",
          "name": "chainId",
          "type": "uint256"
        },
        {
          "internalType": "address",
          "name": "verifyingContract",
          "type": "address"
        },
        {
          "internalType": "bytes32",
          "name": "salt",
          "type": "bytes32"
        },
        {
          "internalType": "uint256[]",
          "name": "extensions",
          "type": "uint256[]"
        }
      ],
      "stateMutability": "view",
      "type": "function"
    },
    {
      "inputs": [
        {
          "internalType": "uint256",
          "name": "timepoint",
          "type": "uint256"
        }
      ],
      "name": "getPastTotalSupply",
      "outputs": [
        {
          "internalType": "uint256",
          "name": "",
          "type": "uint256"
        }
      ],
      "stateMutability": "view",
      "type": "function"
    },
    {
      "inputs": [
        {
          "internalType": "address",
          "name": "account",
          "type": "address"
        },
        {
          "internalType": "uint256",
          "name": "timepoint",
          "type": "uint256"
        }
      ],
      "name": "getPastVotes",
      "outputs": [
        {
          "internalType": "uint256",
          "name": "",
          "type": "uint256"
        }
      ],
      "stateMutability": "view",
      "type": "function"
    },
    {
      "inputs": [
        {
          "internalType": "address",
          "name": "account",
          "type": "address"
        }
      ],
      "name": "getVotes",
      "outputs": [
        {
          "internalType": "uint256",
          "name": "",
          "type": "uint256"
        }
      ],
      "stateMutability": "view",
      "type": "function"
    },
    {
      "inputs": [
        {
          "internalType": "address",
          "name": "to",
          "type": "address"
        },
        {
          "internalType": "uint256",
          "name": "amount",
          "type": "uint256"
        }
      ],
      "name": "mint",
      "outputs": [],
      "stateMutability": "nonpayable",
      "type": "function"
    },
    {
      "inputs": [],
      "name": "name",
      "outputs": [
        {
          "internalType": "string",
          "name": "",
          "type": "string"
        }
      ],
      "stateMutability": "view",
      "type": "function"
    },
    {
      "inputs": [
        {
          "internalType": "address",
          "name": "owner",
          "type": "address"
        }
      ],
      "name": "nonces",
      "outputs": [
        {
          "internalType": "uint256",
          "name": "",
          "type": "uint256"
        }
      ],
      "stateMutability": "view",
      "type": "function"
    },
    {
      "inputs": [
        {
          "internalType": "address",
          "name": "account",
          "type": "address"
        }
      ],
      "name": "numCheckpoints",
      "outputs": [
        {
          "internalType": "uint32",
          "name": "",
          "type": "uint32"
        }
      ],
      "stateMutability": "view",
      "type": "function"
    },
    {
      "inputs": [],
      "name": "owner",
      "outputs": [
        {
          "internalType": "address",
          "name": "",
          "type": "address"
        }
      ],
      "stateMutability": "view",
      "type": "function"
    },
    {
      "inputs": [],
      "name": "pause",
      "outputs": [],
      "stateMutability": "nonpayable",
      "type": "function"
    },
    {
      "inputs": [],
      "name": "paused",
      "outputs": [
        {
          "internalType": "bool",
          "name": "",
          "type": "bool"
        }
      ],
      "stateMutability": "view",
      "type": "function"
    },
    {
      "inputs": [
        {
          "internalType": "address",
          "name": "owner",
          "type": "address"
        },
        {
          "internalType": "address",
          "name": "spender",
          "type": "address"
        },
        {
          "internalType": "uint256",
          "name": "value",
          "type": "uint256"
        },
        {
          "internalType": "uint256",
          "name": "deadline",
          "type": "uint256"
        },
        {
          "internalType": "uint8",
          "name": "v",
          "type": "uint8"
        },
        {
          "internalType": "bytes32",
          "name": "r",
          "type": "bytes32"
        },
        {
          "internalType": "bytes32",
          "name": "s",
          "type": "bytes32"
        }
      ],
      "name": "permit",
      "outputs": [],
      "stateMutability": "nonpayable",
      "type": "function"
    },
    {
      "inputs": [],
      "name": "renounceOwnership",
      "outputs": [],
      "stateMutability": "nonpayable",
      "type": "function"
    },
    {
      "inputs": [],
      "name": "symbol",
      "outputs": [
        {
          "internalType": "string",
          "name": "",
          "type": "string"
        }
      ],
      "stateMutability": "view",
      "type": "function"
    },
    {
      "inputs": [],
      "name": "totalSupply",
      "outputs": [
        {
          "internalType": "uint256",
          "name": "",
          "type": "uint256"
        }
      ],
      "stateMutability": "view",
      "type": "function"
    },
    {
      "inputs": [
        {
          "internalType": "address",
          "name": "to",
          "type": "address"
        },
        {
          "internalType": "uint256",
          "name": "value",
          "type": "uint256"
        }
      ],
      "name": "transfer",
      "outputs": [
        {
          "internalType": "bool",
          "name": "",
          "type": "bool"
        }
      ],
      "stateMutability": "nonpayable",
      "type": "function"
    },
    {
      "inputs": [
        {
          "internalType": "address",
          "name": "from",
          "type": "address"
        },
        {
          "internalType": "address",
          "name": "to",
          "type": "address"
        },
        {
          "internalType": "uint256",
          "name": "value",
          "type": "uint256"
        }
      ],
      "name": "transferFrom",
      "outputs": [
        {
          "internalType": "bool",
          "name": "",
          "type": "bool"
        }
      ],
      "stateMutability": "nonpayable",
      "type": "function"
    },
    {
      "inputs": [
        {
          "internalType": "address",
          "name": "newOwner",
          "type": "address"
        }
      ],
      "name": "transferOwnership",
      "outputs": [],
      "stateMutability": "nonpayable",
      "type": "function"
    },
    {
      "inputs": [],
      "name": "unpause",
      "outputs": [],
      "stateMutability": "nonpayable",
      "type": "function"
    }
  ],
  "bytecode": "0x6101606040523480156200001257600080fd5b5060405162005c1a38038062005c1a83398181016040528101906200003891906200137d565b6040518060400160405280600d81526020017f506f6c796d61746841786f6e7300000000000000000000000000000000000000815250806040518060400160405280600181526020017f3100000000000000000000000000000000000000000000000000000000000000815250836040518060400160405280600d81526020017f506f6c796d61746841786f6e73000000000000000000000000000000000000008152506040518060400160405280600681526020017f504c59584e530000000000000000000000000000000000000000000000000000815250816003908162000123919062001629565b50806004908162000135919062001629565b5050506000600560006101000a81548160ff021916908315150217905550600073ffffffffffffffffffffffffffffffffffffffff168173ffffffffffffffffffffffffffffffffffffffff1603620001c85760006040517f1e4fbdf7000000000000000000000000000000000000000000000000000000008152600401620001bf919062001721565b60405180910390fd5b620001d981620002d060201b60201c565b50620001f06006836200039660201b90919060201c565b61012081815250506200020e6007826200039660201b90919060201c565b6101408181525050818051906020012060e08181525050808051906020012061010081815250504660a081815250506200024d620003ee60201b60201c565b608081815250503073ffffffffffffffffffffffffffffffffffffffff1660c08173ffffffffffffffffffffffffffffffffffffffff1681525050505050620002c933620002a06200044b60201b60201c565b600a620002ae9190620018ce565b6103e8620002bd91906200191f565b6200045460201b60201c565b5062001df5565b6000600560019054906101000a900473ffffffffffffffffffffffffffffffffffffffff16905081600560016101000a81548173ffffffffffffffffffffffffffffffffffffffff021916908373ffffffffffffffffffffffffffffffffffffffff1602179055508173ffffffffffffffffffffffffffffffffffffffff168173ffffffffffffffffffffffffffffffffffffffff167f8be0079c531659141344cd1fd0a4f28419497f9722a3daafe3b4186f6b6457e060405160405180910390a35050565b6000602083511015620003bc57620003b483620004e160201b60201c565b9050620003e8565b82620003ce836200054e60201b60201c565b6000019081620003df919062001629565b5060ff60001b90505b92915050565b60007f8b73c3c69bb8fe3d512ecc4cf759cc79239f7b179b0ffacaa9a75d522b39400f60e0516101005146306040516020016200043095949392919062001996565b60405160208183030381529060405280519060200120905090565b60006012905090565b600073ffffffffffffffffffffffffffffffffffffffff168273ffffffffffffffffffffffffffffffffffffffff1603620004c95760006040517fec442f05000000000000000000000000000000000000000000000000000000008152600401620004c0919062001721565b60405180910390fd5b620004dd600083836200055860201b60201c565b5050565b600080829050601f815111156200053157826040517f305a27a900000000000000000000000000000000000000000000000000000000815260040162000528919062001a82565b60405180910390fd5b8051816200053f9062001ad8565b60001c1760001b915050919050565b6000819050919050565b6200056b8383836200057060201b60201c565b505050565b620005838383836200064560201b60201c565b600073ffffffffffffffffffffffffffffffffffffffff168373ffffffffffffffffffffffffffffffffffffffff16036200062d576000620005ca6200066d60201b60201c565b90506000620005de6200067760201b60201c565b9050808211156200062a5781816040517f1cb15d260000000000000000000000000000000000000000000000000000000081526004016200062192919062001b48565b60405180910390fd5b50505b620006408383836200069b60201b60201c565b505050565b62000655620007a160201b60201c565b62000668838383620007eb60201b60201c565b505050565b6000600254905090565b600079ffffffffffffffffffffffffffffffffffffffffffffffffffff8016905090565b600073ffffffffffffffffffffffffffffffffffffffff168373ffffffffffffffffffffffffffffffffffffffff16036200070257620006ff600b62000a1b60201b62000f9617620006f38462000a3360201b60201c565b62000aa460201b60201c565b50505b600073ffffffffffffffffffffffffffffffffffffffff168273ffffffffffffffffffffffffffffffffffffffff1603620007695762000766600b62000af460201b62000fac176200075a8462000a3360201b60201c565b62000aa460201b60201c565b50505b6200079c6200077e8462000b0c60201b60201c565b6200078f8462000b0c60201b60201c565b8362000b7560201b60201c565b505050565b620007b162000e2860201b60201c565b15620007e9576040517fd93c066500000000000000000000000000000000000000000000000000000000815260040160405180910390fd5b565b600073ffffffffffffffffffffffffffffffffffffffff168373ffffffffffffffffffffffffffffffffffffffff16036200084157806002600082825462000834919062001b75565b9250508190555062000917565b60008060008573ffffffffffffffffffffffffffffffffffffffff1673ffffffffffffffffffffffffffffffffffffffff16815260200190815260200160002054905081811015620008d0578381836040517fe450d38c000000000000000000000000000000000000000000000000000000008152600401620008c79392919062001bb0565b60405180910390fd5b8181036000808673ffffffffffffffffffffffffffffffffffffffff1673ffffffffffffffffffffffffffffffffffffffff16815260200190815260200160002081905550505b600073ffffffffffffffffffffffffffffffffffffffff168273ffffffffffffffffffffffffffffffffffffffff1603620009625780600260008282540392505081905550620009af565b806000808473ffffffffffffffffffffffffffffffffffffffff1673ffffffffffffffffffffffffffffffffffffffff168152602001908152602001600020600082825401925050819055505b8173ffffffffffffffffffffffffffffffffffffffff168373ffffffffffffffffffffffffffffffffffffffff167fddf252ad1be2c89b69c2b068fc378daa952ba7f163c4a11628f55a4df523b3ef8360405162000a0e919062001bed565b60405180910390a3505050565b6000818362000a2b919062001c30565b905092915050565b600079ffffffffffffffffffffffffffffffffffffffffffffffffffff801682111562000a9c5760d0826040517f6dfcc65000000000000000000000000000000000000000000000000000000000815260040162000a9392919062001cc8565b60405180910390fd5b819050919050565b60008062000ae862000abb62000e3f60201b60201c565b62000ad762000ad08862000e5660201b60201c565b868860201c565b8762000eca60201b9092919060201c565b91509150935093915050565b6000818362000b04919062001cf5565b905092915050565b6000600960008373ffffffffffffffffffffffffffffffffffffffff1673ffffffffffffffffffffffffffffffffffffffff16815260200190815260200160002060009054906101000a900473ffffffffffffffffffffffffffffffffffffffff169050919050565b8173ffffffffffffffffffffffffffffffffffffffff168373ffffffffffffffffffffffffffffffffffffffff161415801562000bb25750600081115b1562000e2357600073ffffffffffffffffffffffffffffffffffffffff168373ffffffffffffffffffffffffffffffffffffffff161462000ced5760008062000c5c600a60008773ffffffffffffffffffffffffffffffffffffffff1673ffffffffffffffffffffffffffffffffffffffff16815260200190815260200160002062000af460201b62000fac1762000c508662000a3360201b60201c565b62000aa460201b60201c565b79ffffffffffffffffffffffffffffffffffffffffffffffffffff16915079ffffffffffffffffffffffffffffffffffffffffffffffffffff1691508473ffffffffffffffffffffffffffffffffffffffff167fdec2bacdd2f05b59de34da9b523dff8be42e5e38e818c82fdb0bae774387a724838360405162000ce292919062001b48565b60405180910390a250505b600073ffffffffffffffffffffffffffffffffffffffff168273ffffffffffffffffffffffffffffffffffffffff161462000e225760008062000d91600a60008673ffffffffffffffffffffffffffffffffffffffff1673ffffffffffffffffffffffffffffffffffffffff16815260200190815260200160002062000a1b60201b62000f961762000d858662000a3360201b60201c565b62000aa460201b60201c565b79ffffffffffffffffffffffffffffffffffffffffffffffffffff16915079ffffffffffffffffffffffffffffffffffffffffffffffffffff1691508373ffffffffffffffffffffffffffffffffffffffff167fdec2bacdd2f05b59de34da9b523dff8be42e5e38e818c82fdb0bae774387a724838360405162000e1792919062001b48565b60405180910390a250505b5b505050565b6000600560009054906101000a900460ff16905090565b600062000e5162000eef60201b60201c565b905090565b600080826000018054905090506000811462000ebf5762000e8f8360000160018362000e83919062001d4a565b62000f0760201b60201c565b60000160069054906101000a900479ffffffffffffffffffffffffffffffffffffffffffffffffffff1662000ec2565b60005b915050919050565b60008062000ee385600001858562000f1c60201b60201c565b91509150935093915050565b600062000f0243620012b660201b60201c565b905090565b60008260005281602060002001905092915050565b6000806000858054905090506000811115620011c657600062000f548760018462000f48919062001d4a565b62000f0760201b60201c565b6040518060400160405290816000820160009054906101000a900465ffffffffffff1665ffffffffffff1665ffffffffffff1681526020016000820160069054906101000a900479ffffffffffffffffffffffffffffffffffffffffffffffffffff1679ffffffffffffffffffffffffffffffffffffffffffffffffffff1679ffffffffffffffffffffffffffffffffffffffffffffffffffff168152505090508565ffffffffffff16816000015165ffffffffffff16111562001044576040517f2520601d00000000000000000000000000000000000000000000000000000000815260040160405180910390fd5b8565ffffffffffff16816000015165ffffffffffff1603620010d45784620010818860018562001075919062001d4a565b62000f0760201b60201c565b60000160066101000a81548179ffffffffffffffffffffffffffffffffffffffffffffffffffff021916908379ffffffffffffffffffffffffffffffffffffffffffffffffffff160217905550620011b4565b8660405180604001604052808865ffffffffffff1681526020018779ffffffffffffffffffffffffffffffffffffffffffffffffffff168152509080600181540180825580915050600190039060005260206000200160009091909190915060008201518160000160006101000a81548165ffffffffffff021916908365ffffffffffff16021790555060208201518160000160066101000a81548179ffffffffffffffffffffffffffffffffffffffffffffffffffff021916908379ffffffffffffffffffffffffffffffffffffffffffffffffffff16021790555050505b806020015185935093505050620012ae565b8560405180604001604052808765ffffffffffff1681526020018679ffffffffffffffffffffffffffffffffffffffffffffffffffff168152509080600181540180825580915050600190039060005260206000200160009091909190915060008201518160000160006101000a81548165ffffffffffff021916908365ffffffffffff16021790555060208201518160000160066101000a81548179ffffffffffffffffffffffffffffffffffffffffffffffffffff021916908379ffffffffffffffffffffffffffffffffffffffffffffffffffff160217905550505060008492509250505b935093915050565b600065ffffffffffff80168211156200130b576030826040517f6dfcc6500000000000000000000000000000000000000000000000000000000081526004016200130292919062001dc8565b60405180910390fd5b819050919050565b600080fd5b600073ffffffffffffffffffffffffffffffffffffffff82169050919050565b6000620013458262001318565b9050919050565b620013578162001338565b81146200136357600080fd5b50565b60008151905062001377816200134c565b92915050565b60006020828403121562001396576200139562001313565b5b6000620013a68482850162001366565b91505092915050565b600081519050919050565b7f4e487b7100000000000000000000000000000000000000000000000000000000600052604160045260246000fd5b7f4e487b7100000000000000000000000000000000000000000000000000000000600052602260045260246000fd5b600060028204905060018216806200143157607f821691505b602082108103620014475762001446620013e9565b5b50919050565b60008190508160005260206000209050919050565b60006020601f8301049050919050565b600082821b905092915050565b600060088302620014b17fffffffffffffffffffffffffffffffffffffffffffffffffffffffffffffffff8262001472565b620014bd868362001472565b95508019841693508086168417925050509392505050565b6000819050919050565b6000819050919050565b60006200150a62001504620014fe84620014d5565b620014df565b620014d5565b9050919050565b6000819050919050565b6200152683620014e9565b6200153e620015358262001511565b8484546200147f565b825550505050565b600090565b6200155562001546565b620015628184846200151b565b505050565b5b818110156200158a576200157e6000826200154b565b60018101905062001568565b5050565b601f821115620015d957620015a3816200144d565b620015ae8462001462565b81016020851015620015be578190505b620015d6620015cd8562001462565b83018262001567565b50505b505050565b600082821c905092915050565b6000620015fe60001984600802620015de565b1980831691505092915050565b6000620016198383620015eb565b9150826002028217905092915050565b6200163482620013af565b67ffffffffffffffff81111562001650576200164f620013ba565b5b6200165c825462001418565b620016698282856200158e565b600060209050601f831160018114620016a157600084156200168c578287015190505b6200169885826200160b565b86555062001708565b601f198416620016b1866200144d565b60005b82811015620016db57848901518255600182019150602085019450602081019050620016b4565b86831015620016fb5784890151620016f7601f891682620015eb565b8355505b6001600288020188555050505b505050505050565b6200171b8162001338565b82525050565b600060208201905062001738600083018462001710565b92915050565b7f4e487b7100000000000000000000000000000000000000000000000000000000600052601160045260246000fd5b60008160011c9050919050565b6000808291508390505b6001851115620017cc57808604811115620017a457620017a36200173e565b5b6001851615620017b45780820291505b8081029050620017c4856200176d565b945062001784565b94509492505050565b600082620017e75760019050620018ba565b81620017f75760009050620018ba565b81600181146200181057600281146200181b5762001851565b6001915050620018ba565b60ff84111562001830576200182f6200173e565b5b8360020a9150848211156200184a57620018496200173e565b5b50620018ba565b5060208310610133831016604e8410600b84101617156200188b5782820a9050838111156200188557620018846200173e565b5b620018ba565b6200189a84848460016200177a565b92509050818404811115620018b457620018b36200173e565b5b81810290505b9392505050565b600060ff82169050919050565b6000620018db82620014d5565b9150620018e883620018c1565b9250620019177fffffffffffffffffffffffffffffffffffffffffffffffffffffffffffffffff8484620017d5565b905092915050565b60006200192c82620014d5565b91506200193983620014d5565b92508282026200194981620014d5565b915082820484148315176200196357620019626200173e565b5b5092915050565b6000819050919050565b6200197f816200196a565b82525050565b6200199081620014d5565b82525050565b600060a082019050620019ad600083018862001974565b620019bc602083018762001974565b620019cb604083018662001974565b620019da606083018562001985565b620019e9608083018462001710565b9695505050505050565b600082825260208201905092915050565b60005b8381101562001a2457808201518184015260208101905062001a07565b60008484015250505050565b6000601f19601f8301169050919050565b600062001a4e82620013af565b62001a5a8185620019f3565b935062001a6c81856020860162001a04565b62001a778162001a30565b840191505092915050565b6000602082019050818103600083015262001a9e818462001a41565b905092915050565b600081519050919050565b6000819050602082019050919050565b600062001acf82516200196a565b80915050919050565b600062001ae58262001aa6565b8262001af18462001ab1565b905062001afe8162001ac1565b9250602082101562001b415762001b3c7fffffffffffffffffffffffffffffffffffffffffffffffffffffffffffffffff8360200360080262001472565b831692505b5050919050565b600060408201905062001b5f600083018562001985565b62001b6e602083018462001985565b9392505050565b600062001b8282620014d5565b915062001b8f83620014d5565b925082820190508082111562001baa5762001ba96200173e565b5b92915050565b600060608201905062001bc7600083018662001710565b62001bd6602083018562001985565b62001be5604083018462001985565b949350505050565b600060208201905062001c04600083018462001985565b92915050565b600079ffffffffffffffffffffffffffffffffffffffffffffffffffff82169050919050565b600062001c3d8262001c0a565b915062001c4a8362001c0a565b9250828201905079ffffffffffffffffffffffffffffffffffffffffffffffffffff81111562001c7f5762001c7e6200173e565b5b92915050565b6000819050919050565b600062001cb062001caa62001ca48462001c85565b620014df565b620018c1565b9050919050565b62001cc28162001c8f565b82525050565b600060408201905062001cdf600083018562001cb7565b62001cee602083018462001985565b9392505050565b600062001d028262001c0a565b915062001d0f8362001c0a565b9250828203905079ffffffffffffffffffffffffffffffffffffffffffffffffffff81111562001d445762001d436200173e565b5b92915050565b600062001d5782620014d5565b915062001d6483620014d5565b925082820390508181111562001d7f5762001d7e6200173e565b5b92915050565b6000819050919050565b600062001db062001daa62001da48462001d85565b620014df565b620018c1565b9050919050565b62001dc28162001d8f565b82525050565b600060408201905062001ddf600083018562001db7565b62001dee602083018462001985565b9392505050565b60805160a05160c05160e051610100516101205161014051613dca62001e5060003960006117d60152600061179b01526000611bf701526000611bd601526000611168015260006111be015260006111e70152613dca6000f3fe608060405234801561001057600080fd5b50600436106101da5760003560e01c8063715018a61161010457806395d89b41116100a2578063d505accf11610071578063d505accf14610563578063dd62ed3e1461057f578063f1127ed8146105af578063f2fde38b146105df576101da565b806395d89b41146104c95780639ab24eb0146104e7578063a9059cbb14610517578063c3cda52014610547576101da565b806384b0196e116100de57806384b0196e146104395780638da5cb5b1461045d5780638e539e8c1461047b57806391ddadf4146104ab576101da565b8063715018a6146103f55780637ecebe00146103ff5780638456cb591461042f576101da565b80633f4ba83a1161017c5780635c19a95c1161014b5780635c19a95c1461035b5780635c975abb146103775780636fcfff451461039557806370a08231146103c5576101da565b80633f4ba83a146102e757806340c10f19146102f15780634bf5d7e91461030d578063587cde1e1461032b576101da565b806323b872dd116101b857806323b872dd1461024b578063313ce5671461027b5780633644e515146102995780633a46b1a8146102b7576101da565b806306fdde03146101df578063095ea7b3146101fd57806318160ddd1461022d575b600080fd5b6101e76105fb565b6040516101f49190613074565b60405180910390f35b6102176004803603810190610212919061312f565b61068d565b604051610224919061318a565b60405180910390f35b6102356106b0565b60405161024291906131b4565b60405180910390f35b610265600480360381019061026091906131cf565b6106ba565b604051610272919061318a565b60405180910390f35b6102836106e9565b604051610290919061323e565b60405180910390f35b6102a16106f2565b6040516102ae9190613272565b60405180910390f35b6102d160048036038101906102cc919061312f565b610701565b6040516102de91906131b4565b60405180910390f35b6102ef6107da565b005b61030b6004803603810190610306919061312f565b6107ec565b005b610315610802565b6040516103229190613074565b60405180910390f35b6103456004803603810190610340919061328d565b610896565b60405161035291906132c9565b60405180910390f35b6103756004803603810190610370919061328d565b6108ff565b005b61037f610919565b60405161038c919061318a565b60405180910390f35b6103af60048036038101906103aa919061328d565b610930565b6040516103bc9190613303565b60405180910390f35b6103df60048036038101906103da919061328d565b610942565b6040516103ec91906131b4565b60405180910390f35b6103fd61098a565b005b6104196004803603810190610414919061328d565b61099e565b60405161042691906131b4565b60405180910390f35b6104376109b0565b005b6104416109c2565b6040516104549796959493929190613417565b60405180910390f35b610465610a6c565b60405161047291906132c9565b60405180910390f35b6104956004803603810190610490919061349b565b610a96565b6040516104a291906131b4565b60405180910390f35b6104b3610b31565b6040516104c091906134e9565b60405180910390f35b6104d1610b40565b6040516104de9190613074565b60405180910390f35b61050160048036038101906104fc919061328d565b610bd2565b60405161050e91906131b4565b60405180910390f35b610531600480360381019061052c919061312f565b610c3e565b60405161053e919061318a565b60405180910390f35b610561600480360381019061055c919061355c565b610c61565b005b61057d600480360381019061057891906135e9565b610d27565b005b6105996004803603810190610594919061368b565b610e6f565b6040516105a691906131b4565b60405180910390f35b6105c960048036038101906105c491906136f7565b610ef6565b6040516105d691906137aa565b60405180910390f35b6105f960048036038101906105f4919061328d565b610f10565b005b60606003805461060a906137f4565b80601f0160208091040260200160405190810160405280929190818152602001828054610636906137f4565b80156106835780601f1061065857610100808354040283529160200191610683565b820191906000526020600020905b81548152906001019060200180831161066657829003601f168201915b5050505050905090565b600080610698610fc2565b90506106a5818585610fca565b600191505092915050565b6000600254905090565b6000806106c5610fc2565b90506106d2858285610fdc565b6106dd858585611070565b60019150509392505050565b60006012905090565b60006106fc611164565b905090565b60008061070c610b31565b90508065ffffffffffff16831061075c5782816040517fecd3f81e000000000000000000000000000000000000000000000000000000008152600401610753929190613825565b60405180910390fd5b6107b56107688461121b565b600a60008773ffffffffffffffffffffffffffffffffffffffff1673ffffffffffffffffffffffffffffffffffffffff16815260200190815260200160002061127590919063ffffffff16565b79ffffffffffffffffffffffffffffffffffffffffffffffffffff1691505092915050565b6107e261136f565b6107ea6113f6565b565b6107f461136f565b6107fe8282611459565b5050565b606061080c6114db565b65ffffffffffff1661081c610b31565b65ffffffffffff161461085b576040517f6ff0714000000000000000000000000000000000000000000000000000000000815260040160405180910390fd5b6040518060400160405280601d81526020017f6d6f64653d626c6f636b6e756d6265722666726f6d3d64656661756c74000000815250905090565b6000600960008373ffffffffffffffffffffffffffffffffffffffff1673ffffffffffffffffffffffffffffffffffffffff16815260200190815260200160002060009054906101000a900473ffffffffffffffffffffffffffffffffffffffff169050919050565b6000610909610fc2565b905061091581836114eb565b5050565b6000600560009054906101000a900460ff16905090565b600061093b826115ff565b9050919050565b60008060008373ffffffffffffffffffffffffffffffffffffffff1673ffffffffffffffffffffffffffffffffffffffff168152602001908152602001600020549050919050565b61099261136f565b61099c6000611657565b565b60006109a98261171d565b9050919050565b6109b861136f565b6109c061172f565b565b6000606080600080600060606109d6611792565b6109de6117cd565b46306000801b600067ffffffffffffffff8111156109ff576109fe61384e565b5b604051908082528060200260200182016040528015610a2d5781602001602082028036833780820191505090505b507f0f00000000000000000000000000000000000000000000000000000000000000959493929190965096509650965096509650965090919293949596565b6000600560019054906101000a900473ffffffffffffffffffffffffffffffffffffffff16905090565b600080610aa1610b31565b90508065ffffffffffff168310610af15782816040517fecd3f81e000000000000000000000000000000000000000000000000000000008152600401610ae8929190613825565b60405180910390fd5b610b0d610afd8461121b565b600b61127590919063ffffffff16565b79ffffffffffffffffffffffffffffffffffffffffffffffffffff16915050919050565b6000610b3b6114db565b905090565b606060048054610b4f906137f4565b80601f0160208091040260200160405190810160405280929190818152602001828054610b7b906137f4565b8015610bc85780601f10610b9d57610100808354040283529160200191610bc8565b820191906000526020600020905b815481529060010190602001808311610bab57829003601f168201915b5050505050905090565b6000610c1b600a60008473ffffffffffffffffffffffffffffffffffffffff1673ffffffffffffffffffffffffffffffffffffffff168152602001908152602001600020611808565b79ffffffffffffffffffffffffffffffffffffffffffffffffffff169050919050565b600080610c49610fc2565b9050610c56818585611070565b600191505092915050565b83421115610ca657836040517f4683af0e000000000000000000000000000000000000000000000000000000008152600401610c9d91906131b4565b60405180910390fd5b6000610d08610d007fe48329057bfd03d55e49b547132e39cffd9c1820ad7b9d4c5307691425d15adf898989604051602001610ce5949392919061387d565b60405160208183030381529060405280519060200120611870565b85858561188a565b9050610d1481876118ba565b610d1e81886114eb565b50505050505050565b83421115610d6c57836040517f62791302000000000000000000000000000000000000000000000000000000008152600401610d6391906131b4565b60405180910390fd5b60007f6e71edae12b1b97f4d1f60370fef10105fa2faae0126114a169c64845d6126c9888888610d9b8c611912565b89604051602001610db1969594939291906138c2565b6040516020818303038152906040528051906020012090506000610dd482611870565b90506000610de48287878761188a565b90508973ffffffffffffffffffffffffffffffffffffffff168173ffffffffffffffffffffffffffffffffffffffff1614610e5857808a6040517f4b800e46000000000000000000000000000000000000000000000000000000008152600401610e4f929190613923565b60405180910390fd5b610e638a8a8a610fca565b50505050505050505050565b6000600160008473ffffffffffffffffffffffffffffffffffffffff1673ffffffffffffffffffffffffffffffffffffffff16815260200190815260200160002060008373ffffffffffffffffffffffffffffffffffffffff1673ffffffffffffffffffffffffffffffffffffffff16815260200190815260200160002054905092915050565b610efe612fa6565b610f088383611969565b905092915050565b610f1861136f565b600073ffffffffffffffffffffffffffffffffffffffff168173ffffffffffffffffffffffffffffffffffffffff1603610f8a5760006040517f1e4fbdf7000000000000000000000000000000000000000000000000000000008152600401610f8191906132c9565b60405180910390fd5b610f9381611657565b50565b60008183610fa4919061397b565b905092915050565b60008183610fba91906139c9565b905092915050565b600033905090565b610fd783838360016119ca565b505050565b6000610fe88484610e6f565b90507fffffffffffffffffffffffffffffffffffffffffffffffffffffffffffffffff811461106a578181101561105a578281836040517ffb8f41b200000000000000000000000000000000000000000000000000000000815260040161105193929190613a17565b60405180910390fd5b611069848484840360006119ca565b5b50505050565b600073ffffffffffffffffffffffffffffffffffffffff168373ffffffffffffffffffffffffffffffffffffffff16036110e25760006040517f96c6fd1e0000000000000000000000000000000000000000000000000000000081526004016110d991906132c9565b60405180910390fd5b600073ffffffffffffffffffffffffffffffffffffffff168273ffffffffffffffffffffffffffffffffffffffff16036111545760006040517fec442f0500000000000000000000000000000000000000000000000000000000815260040161114b91906132c9565b60405180910390fd5b61115f838383611ba1565b505050565b60007f000000000000000000000000000000000000000000000000000000000000000073ffffffffffffffffffffffffffffffffffffffff163073ffffffffffffffffffffffffffffffffffffffff161480156111e057507f000000000000000000000000000000000000000000000000000000000000000046145b1561120d577f00000000000000000000000000000000000000000000000000000000000000009050611218565b611215611bb1565b90505b90565b600065ffffffffffff801682111561126d576030826040517f6dfcc650000000000000000000000000000000000000000000000000000000008152600401611264929190613a93565b60405180910390fd5b819050919050565b6000808360000180549050905060008082905060058311156112fd57600061129c84611c47565b846112a79190613abc565b90506112b68760000182611d40565b60000160009054906101000a900465ffffffffffff1665ffffffffffff168665ffffffffffff1610156112eb578091506112fb565b6001816112f89190613af0565b92505b505b600061130e87600001878585611d55565b905060008114611360576113318760000160018361132c9190613abc565b611d40565b60000160069054906101000a900479ffffffffffffffffffffffffffffffffffffffffffffffffffff16611363565b60005b94505050505092915050565b611377610fc2565b73ffffffffffffffffffffffffffffffffffffffff16611395610a6c565b73ffffffffffffffffffffffffffffffffffffffff16146113f4576113b8610fc2565b6040517f118cdaa70000000000000000000000000000000000000000000000000000000081526004016113eb91906132c9565b60405180910390fd5b565b6113fe611dce565b6000600560006101000a81548160ff0219169083151502179055507f5db9ee0a495bf2e6ff9c91a7834c1ba4fdd244a5e8aa4e537bd38aeae4b073aa611442610fc2565b60405161144f91906132c9565b60405180910390a1565b600073ffffffffffffffffffffffffffffffffffffffff168273ffffffffffffffffffffffffffffffffffffffff16036114cb5760006040517fec442f050000000000000000000000000000000000000000000000000000000081526004016114c291906132c9565b60405180910390fd5b6114d760008383611ba1565b5050565b60006114e64361121b565b905090565b60006114f683610896565b905081600960008573ffffffffffffffffffffffffffffffffffffffff1673ffffffffffffffffffffffffffffffffffffffff16815260200190815260200160002060006101000a81548173ffffffffffffffffffffffffffffffffffffffff021916908373ffffffffffffffffffffffffffffffffffffffff1602179055508173ffffffffffffffffffffffffffffffffffffffff168173ffffffffffffffffffffffffffffffffffffffff168473ffffffffffffffffffffffffffffffffffffffff167f3134e8a2e6d97e929a7e54011ea5485d7d196dd5f0ba4d4ef95803e8e3fc257f60405160405180910390a46115fa81836115f586611e0e565b611e20565b505050565b600061165061164b600a60008573ffffffffffffffffffffffffffffffffffffffff1673ffffffffffffffffffffffffffffffffffffffff168152602001908152602001600020612099565b6120aa565b9050919050565b6000600560019054906101000a900473ffffffffffffffffffffffffffffffffffffffff16905081600560016101000a81548173ffffffffffffffffffffffffffffffffffffffff021916908373ffffffffffffffffffffffffffffffffffffffff1602179055508173ffffffffffffffffffffffffffffffffffffffff168173ffffffffffffffffffffffffffffffffffffffff167f8be0079c531659141344cd1fd0a4f28419497f9722a3daafe3b4186f6b6457e060405160405180910390a35050565b600061172882612102565b9050919050565b61173761214b565b6001600560006101000a81548160ff0219169083151502179055507f62e78cea01bee320cd4e420270b5ea74000d11b0c9f74754ebdbfc544b05a25861177b610fc2565b60405161178891906132c9565b60405180910390a1565b60606117c860067f000000000000000000000000000000000000000000000000000000000000000061218c90919063ffffffff16565b905090565b606061180360077f000000000000000000000000000000000000000000000000000000000000000061218c90919063ffffffff16565b905090565b600080826000018054905090506000811461186557611836836000016001836118319190613abc565b611d40565b60000160069054906101000a900479ffffffffffffffffffffffffffffffffffffffffffffffffffff16611868565b60005b915050919050565b600061188361187d611164565b8361223c565b9050919050565b60008060008061189c8888888861227d565b9250925092506118ac8282612371565b829350505050949350505050565b60006118c583611912565b905080821461190d5782816040517f752d88c0000000000000000000000000000000000000000000000000000000008152600401611904929190613b24565b60405180910390fd5b505050565b6000600860008373ffffffffffffffffffffffffffffffffffffffff1673ffffffffffffffffffffffffffffffffffffffff1681526020019081526020016000206000815480929190600101919050559050919050565b611971612fa6565b6119c282600a60008673ffffffffffffffffffffffffffffffffffffffff1673ffffffffffffffffffffffffffffffffffffffff1681526020019081526020016000206124d590919063ffffffff16565b905092915050565b600073ffffffffffffffffffffffffffffffffffffffff168473ffffffffffffffffffffffffffffffffffffffff1603611a3c5760006040517fe602df05000000000000000000000000000000000000000000000000000000008152600401611a3391906132c9565b60405180910390fd5b600073ffffffffffffffffffffffffffffffffffffffff168373ffffffffffffffffffffffffffffffffffffffff1603611aae5760006040517f94280d62000000000000000000000000000000000000000000000000000000008152600401611aa591906132c9565b60405180910390fd5b81600160008673ffffffffffffffffffffffffffffffffffffffff1673ffffffffffffffffffffffffffffffffffffffff16815260200190815260200160002060008573ffffffffffffffffffffffffffffffffffffffff1673ffffffffffffffffffffffffffffffffffffffff168152602001908152602001600020819055508015611b9b578273ffffffffffffffffffffffffffffffffffffffff168473ffffffffffffffffffffffffffffffffffffffff167f8c5be1e5ebec7d5bd14f71427d1e84f3dd0314c0f7b2291e5b200ac8c7c3b92584604051611b9291906131b4565b60405180910390a35b50505050565b611bac8383836125aa565b505050565b60007f8b73c3c69bb8fe3d512ecc4cf759cc79239f7b179b0ffacaa9a75d522b39400f7f00000000000000000000000000000000000000000000000000000000000000007f00000000000000000000000000000000000000000000000000000000000000004630604051602001611c2c959493929190613b4d565b60405160208183030381529060405280519060200120905090565b6000808203611c595760009050611d3b565b60006001611c668461265b565b901c6001901b90506001818481611c8057611c7f613ba0565b5b048201901c90506001818481611c9957611c98613ba0565b5b048201901c90506001818481611cb257611cb1613ba0565b5b048201901c90506001818481611ccb57611cca613ba0565b5b048201901c90506001818481611ce457611ce3613ba0565b5b048201901c90506001818481611cfd57611cfc613ba0565b5b048201901c90506001818481611d1657611d15613ba0565b5b048201901c9050611d3781828581611d3157611d30613ba0565b5b0461273c565b9150505b919050565b60008260005281602060002001905092915050565b60005b81831015611dc3576000611d6c8484612755565b90508465ffffffffffff16611d818783611d40565b60000160009054906101000a900465ffffffffffff1665ffffffffffff161115611dad57809250611dbd565b600181611dba9190613af0565b93505b50611d58565b819050949350505050565b611dd6610919565b611e0c576040517f8dfc202b00000000000000000000000000000000000000000000000000000000815260040160405180910390fd5b565b6000611e1982610942565b9050919050565b8173ffffffffffffffffffffffffffffffffffffffff168373ffffffffffffffffffffffffffffffffffffffff1614158015611e5c5750600081115b1561209457600073ffffffffffffffffffffffffffffffffffffffff168373ffffffffffffffffffffffffffffffffffffffff1614611f7a57600080611eeb600a60008773ffffffffffffffffffffffffffffffffffffffff1673ffffffffffffffffffffffffffffffffffffffff168152602001908152602001600020610fac611ee68661277b565b6127e9565b79ffffffffffffffffffffffffffffffffffffffffffffffffffff16915079ffffffffffffffffffffffffffffffffffffffffffffffffffff1691508473ffffffffffffffffffffffffffffffffffffffff167fdec2bacdd2f05b59de34da9b523dff8be42e5e38e818c82fdb0bae774387a7248383604051611f6f929190613bcf565b60405180910390a250505b600073ffffffffffffffffffffffffffffffffffffffff168273ffffffffffffffffffffffffffffffffffffffff161461209357600080612004600a60008673ffffffffffffffffffffffffffffffffffffffff1673ffffffffffffffffffffffffffffffffffffffff168152602001908152602001600020610f96611fff8661277b565b6127e9565b79ffffffffffffffffffffffffffffffffffffffffffffffffffff16915079ffffffffffffffffffffffffffffffffffffffffffffffffffff1691508373ffffffffffffffffffffffffffffffffffffffff167fdec2bacdd2f05b59de34da9b523dff8be42e5e38e818c82fdb0bae774387a7248383604051612088929190613bcf565b60405180910390a250505b5b505050565b600081600001805490509050919050565b600063ffffffff80168211156120fa576020826040517f6dfcc6500000000000000000000000000000000000000000000000000000000081526004016120f1929190613c33565b60405180910390fd5b819050919050565b6000600860008373ffffffffffffffffffffffffffffffffffffffff1673ffffffffffffffffffffffffffffffffffffffff168152602001908152602001600020549050919050565b612153610919565b1561218a576040517fd93c066500000000000000000000000000000000000000000000000000000000815260040160405180910390fd5b565b606060ff60001b83146121a9576121a283612829565b9050612236565b8180546121b5906137f4565b80601f01602080910402602001604051908101604052809291908181526020018280546121e1906137f4565b801561222e5780601f106122035761010080835404028352916020019161222e565b820191906000526020600020905b81548152906001019060200180831161221157829003601f168201915b505050505090505b92915050565b60006040517f190100000000000000000000000000000000000000000000000000000000000081528360028201528260228201526042812091505092915050565b60008060007f7fffffffffffffffffffffffffffffff5d576e7357a4501ddfe92f46681b20a08460001c11156122bd576000600385925092509250612367565b6000600188888888604051600081526020016040526040516122e29493929190613c5c565b6020604051602081039080840390855afa158015612304573d6000803e3d6000fd5b505050602060405103519050600073ffffffffffffffffffffffffffffffffffffffff168173ffffffffffffffffffffffffffffffffffffffff160361235857600060016000801b93509350935050612367565b8060008060001b935093509350505b9450945094915050565b6000600381111561238557612384613ca1565b5b82600381111561239857612397613ca1565b5b03156124d157600160038111156123b2576123b1613ca1565b5b8260038111156123c5576123c4613ca1565b5b036123fc576040517ff645eedf00000000000000000000000000000000000000000000000000000000815260040160405180910390fd5b600260038111156124105761240f613ca1565b5b82600381111561242357612422613ca1565b5b03612468578060001c6040517ffce698f700000000000000000000000000000000000000000000000000000000815260040161245f91906131b4565b60405180910390fd5b60038081111561247b5761247a613ca1565b5b82600381111561248e5761248d613ca1565b5b036124d057806040517fd78bce0c0000000000000000000000000000000000000000000000000000000081526004016124c79190613272565b60405180910390fd5b5b5050565b6124dd612fa6565b826000018263ffffffff16815481106124f9576124f8613cd0565b5b906000526020600020016040518060400160405290816000820160009054906101000a900465ffffffffffff1665ffffffffffff1665ffffffffffff1681526020016000820160069054906101000a900479ffffffffffffffffffffffffffffffffffffffffffffffffffff1679ffffffffffffffffffffffffffffffffffffffffffffffffffff1679ffffffffffffffffffffffffffffffffffffffffffffffffffff1681525050905092915050565b6125b583838361289d565b600073ffffffffffffffffffffffffffffffffffffffff168373ffffffffffffffffffffffffffffffffffffffff160361264b5760006125f36106b0565b905060006125ff6128b5565b9050808211156126485781816040517f1cb15d2600000000000000000000000000000000000000000000000000000000815260040161263f929190613bcf565b60405180910390fd5b50505b6126568383836128d9565b505050565b600080600090506000608084901c111561267d57608083901c92506080810190505b6000604084901c111561269857604083901c92506040810190505b6000602084901c11156126b357602083901c92506020810190505b6000601084901c11156126ce57601083901c92506010810190505b6000600884901c11156126e957600883901c92506008810190505b6000600484901c111561270457600483901c92506004810190505b6000600284901c111561271f57600283901c92506002810190505b6000600184901c1115612733576001810190505b80915050919050565b600081831061274b578161274d565b825b905092915050565b600060028284186127669190613cff565b8284166127739190613af0565b905092915050565b600079ffffffffffffffffffffffffffffffffffffffffffffffffffff80168211156127e15760d0826040517f6dfcc6500000000000000000000000000000000000000000000000000000000081526004016127d8929190613d6b565b60405180910390fd5b819050919050565b60008061281d6127f7610b31565b61280d61280388611808565b868863ffffffff16565b876129939092919063ffffffff16565b91509150935093915050565b60606000612836836129b0565b90506000602067ffffffffffffffff8111156128555761285461384e565b5b6040519080825280601f01601f1916602001820160405280156128875781602001600182028036833780820191505090505b5090508181528360208201528092505050919050565b6128a561214b565b6128b0838383612a00565b505050565b600079ffffffffffffffffffffffffffffffffffffffffffffffffffff8016905090565b600073ffffffffffffffffffffffffffffffffffffffff168373ffffffffffffffffffffffffffffffffffffffff160361292657612923600b610f9661291e8461277b565b6127e9565b50505b600073ffffffffffffffffffffffffffffffffffffffff168273ffffffffffffffffffffffffffffffffffffffff160361297357612970600b610fac61296b8461277b565b6127e9565b50505b61298e61297f84610896565b61298884610896565b83611e20565b505050565b6000806129a4856000018585612c25565b91509150935093915050565b60008060ff8360001c169050601f8111156129f7576040517fb3512b0c00000000000000000000000000000000000000000000000000000000815260040160405180910390fd5b80915050919050565b600073ffffffffffffffffffffffffffffffffffffffff168373ffffffffffffffffffffffffffffffffffffffff1603612a52578060026000828254612a469190613af0565b92505081905550612b25565b60008060008573ffffffffffffffffffffffffffffffffffffffff1673ffffffffffffffffffffffffffffffffffffffff16815260200190815260200160002054905081811015612ade578381836040517fe450d38c000000000000000000000000000000000000000000000000000000008152600401612ad593929190613a17565b60405180910390fd5b8181036000808673ffffffffffffffffffffffffffffffffffffffff1673ffffffffffffffffffffffffffffffffffffffff16815260200190815260200160002081905550505b600073ffffffffffffffffffffffffffffffffffffffff168273ffffffffffffffffffffffffffffffffffffffff1603612b6e5780600260008282540392505081905550612bbb565b806000808473ffffffffffffffffffffffffffffffffffffffff1673ffffffffffffffffffffffffffffffffffffffff168152602001908152602001600020600082825401925050819055505b8173ffffffffffffffffffffffffffffffffffffffff168373ffffffffffffffffffffffffffffffffffffffff167fddf252ad1be2c89b69c2b068fc378daa952ba7f163c4a11628f55a4df523b3ef83604051612c1891906131b4565b60405180910390a3505050565b6000806000858054905090506000811115612eb6576000612c5287600184612c4d9190613abc565b611d40565b6040518060400160405290816000820160009054906101000a900465ffffffffffff1665ffffffffffff1665ffffffffffff1681526020016000820160069054906101000a900479ffffffffffffffffffffffffffffffffffffffffffffffffffff1679ffffffffffffffffffffffffffffffffffffffffffffffffffff1679ffffffffffffffffffffffffffffffffffffffffffffffffffff168152505090508565ffffffffffff16816000015165ffffffffffff161115612d41576040517f2520601d00000000000000000000000000000000000000000000000000000000815260040160405180910390fd5b8565ffffffffffff16816000015165ffffffffffff1603612dc55784612d7388600185612d6e9190613abc565b611d40565b60000160066101000a81548179ffffffffffffffffffffffffffffffffffffffffffffffffffff021916908379ffffffffffffffffffffffffffffffffffffffffffffffffffff160217905550612ea5565b8660405180604001604052808865ffffffffffff1681526020018779ffffffffffffffffffffffffffffffffffffffffffffffffffff168152509080600181540180825580915050600190039060005260206000200160009091909190915060008201518160000160006101000a81548165ffffffffffff021916908365ffffffffffff16021790555060208201518160000160066101000a81548179ffffffffffffffffffffffffffffffffffffffffffffffffffff021916908379ffffffffffffffffffffffffffffffffffffffffffffffffffff16021790555050505b806020015185935093505050612f9e565b8560405180604001604052808765ffffffffffff1681526020018679ffffffffffffffffffffffffffffffffffffffffffffffffffff168152509080600181540180825580915050600190039060005260206000200160009091909190915060008201518160000160006101000a81548165ffffffffffff021916908365ffffffffffff16021790555060208201518160000160066101000a81548179ffffffffffffffffffffffffffffffffffffffffffffffffffff021916908379ffffffffffffffffffffffffffffffffffffffffffffffffffff160217905550505060008492509250505b935093915050565b6040518060400160405280600065ffffffffffff168152602001600079ffffffffffffffffffffffffffffffffffffffffffffffffffff1681525090565b600081519050919050565b600082825260208201905092915050565b60005b8381101561301e578082015181840152602081019050613003565b60008484015250505050565b6000601f19601f8301169050919050565b600061304682612fe4565b6130508185612fef565b9350613060818560208601613000565b6130698161302a565b840191505092915050565b6000602082019050818103600083015261308e818461303b565b905092915050565b600080fd5b600073ffffffffffffffffffffffffffffffffffffffff82169050919050565b60006130c68261309b565b9050919050565b6130d6816130bb565b81146130e157600080fd5b50565b6000813590506130f3816130cd565b92915050565b6000819050919050565b61310c816130f9565b811461311757600080fd5b50565b60008135905061312981613103565b92915050565b6000806040838503121561314657613145613096565b5b6000613154858286016130e4565b92505060206131658582860161311a565b9150509250929050565b60008115159050919050565b6131848161316f565b82525050565b600060208201905061319f600083018461317b565b92915050565b6131ae816130f9565b82525050565b60006020820190506131c960008301846131a5565b92915050565b6000806000606084860312156131e8576131e7613096565b5b60006131f6868287016130e4565b9350506020613207868287016130e4565b92505060406132188682870161311a565b9150509250925092565b600060ff82169050919050565b61323881613222565b82525050565b6000602082019050613253600083018461322f565b92915050565b6000819050919050565b61326c81613259565b82525050565b60006020820190506132876000830184613263565b92915050565b6000602082840312156132a3576132a2613096565b5b60006132b1848285016130e4565b91505092915050565b6132c3816130bb565b82525050565b60006020820190506132de60008301846132ba565b92915050565b600063ffffffff82169050919050565b6132fd816132e4565b82525050565b600060208201905061331860008301846132f4565b92915050565b60007fff0000000000000000000000000000000000000000000000000000000000000082169050919050565b6133538161331e565b82525050565b600081519050919050565b600082825260208201905092915050565b6000819050602082019050919050565b61338e816130f9565b82525050565b60006133a08383613385565b60208301905092915050565b6000602082019050919050565b60006133c482613359565b6133ce8185613364565b93506133d983613375565b8060005b8381101561340a5781516133f18882613394565b97506133fc836133ac565b9250506001810190506133dd565b5085935050505092915050565b600060e08201905061342c600083018a61334a565b818103602083015261343e818961303b565b90508181036040830152613452818861303b565b905061346160608301876131a5565b61346e60808301866132ba565b61347b60a0830185613263565b81810360c083015261348d81846133b9565b905098975050505050505050565b6000602082840312156134b1576134b0613096565b5b60006134bf8482850161311a565b91505092915050565b600065ffffffffffff82169050919050565b6134e3816134c8565b82525050565b60006020820190506134fe60008301846134da565b92915050565b61350d81613222565b811461351857600080fd5b50565b60008135905061352a81613504565b92915050565b61353981613259565b811461354457600080fd5b50565b60008135905061355681613530565b92915050565b60008060008060008060c0878903121561357957613578613096565b5b600061358789828a016130e4565b965050602061359889828a0161311a565b95505060406135a989828a0161311a565b94505060606135ba89828a0161351b565b93505060806135cb89828a01613547565b92505060a06135dc89828a01613547565b9150509295509295509295565b600080600080600080600060e0888a03121561360857613607613096565b5b60006136168a828b016130e4565b97505060206136278a828b016130e4565b96505060406136388a828b0161311a565b95505060606136498a828b0161311a565b945050608061365a8a828b0161351b565b93505060a061366b8a828b01613547565b92505060c061367c8a828b01613547565b91505092959891949750929550565b600080604083850312156136a2576136a1613096565b5b60006136b0858286016130e4565b92505060206136c1858286016130e4565b9150509250929050565b6136d4816132e4565b81146136df57600080fd5b50565b6000813590506136f1816136cb565b92915050565b6000806040838503121561370e5761370d613096565b5b600061371c858286016130e4565b925050602061372d858286016136e2565b9150509250929050565b613740816134c8565b82525050565b600079ffffffffffffffffffffffffffffffffffffffffffffffffffff82169050919050565b61377581613746565b82525050565b6040820160008201516137916000850182613737565b5060208201516137a4602085018261376c565b50505050565b60006040820190506137bf600083018461377b565b92915050565b7f4e487b7100000000000000000000000000000000000000000000000000000000600052602260045260246000fd5b6000600282049050600182168061380c57607f821691505b60208210810361381f5761381e6137c5565b5b50919050565b600060408201905061383a60008301856131a5565b61384760208301846134da565b9392505050565b7f4e487b7100000000000000000000000000000000000000000000000000000000600052604160045260246000fd5b60006080820190506138926000830187613263565b61389f60208301866132ba565b6138ac60408301856131a5565b6138b960608301846131a5565b95945050505050565b600060c0820190506138d76000830189613263565b6138e460208301886132ba565b6138f160408301876132ba565b6138fe60608301866131a5565b61390b60808301856131a5565b61391860a08301846131a5565b979650505050505050565b600060408201905061393860008301856132ba565b61394560208301846132ba565b9392505050565b7f4e487b7100000000000000000000000000000000000000000000000000000000600052601160045260246000fd5b600061398682613746565b915061399183613746565b9250828201905079ffffffffffffffffffffffffffffffffffffffffffffffffffff8111156139c3576139c261394c565b5b92915050565b60006139d482613746565b91506139df83613746565b9250828203905079ffffffffffffffffffffffffffffffffffffffffffffffffffff811115613a1157613a1061394c565b5b92915050565b6000606082019050613a2c60008301866132ba565b613a3960208301856131a5565b613a4660408301846131a5565b949350505050565b6000819050919050565b6000819050919050565b6000613a7d613a78613a7384613a4e565b613a58565b613222565b9050919050565b613a8d81613a62565b82525050565b6000604082019050613aa86000830185613a84565b613ab560208301846131a5565b9392505050565b6000613ac7826130f9565b9150613ad2836130f9565b9250828203905081811115613aea57613ae961394c565b5b92915050565b6000613afb826130f9565b9150613b06836130f9565b9250828201905080821115613b1e57613b1d61394c565b5b92915050565b6000604082019050613b3960008301856132ba565b613b4660208301846131a5565b9392505050565b600060a082019050613b626000830188613263565b613b6f6020830187613263565b613b7c6040830186613263565b613b8960608301856131a5565b613b9660808301846132ba565b9695505050505050565b7f4e487b7100000000000000000000000000000000000000000000000000000000600052601260045260246000fd5b6000604082019050613be460008301856131a5565b613bf160208301846131a5565b9392505050565b6000819050919050565b6000613c1d613c18613c1384613bf8565b613a58565b613222565b9050919050565b613c2d81613c02565b82525050565b6000604082019050613c486000830185613c24565b613c5560208301846131a5565b9392505050565b6000608082019050613c716000830187613263565b613c7e602083018661322f565b613c8b6040830185613263565b613c986060830184613263565b95945050505050565b7f4e487b7100000000000000000000000000000000000000000000000000000000600052602160045260246000fd5b7f4e487b7100000000000000000000000000000000000000000000000000000000600052603260045260246000fd5b6000613d0a826130f9565b9150613d15836130f9565b925082613d2557613d24613ba0565b5b828204905092915050565b6000819050919050565b6000613d55613d50613d4b84613d30565b613a58565b613222565b9050919050565b613d6581613d3a565b82525050565b6000604082019050613d806000830185613d5c565b613d8d60208301846131a5565b939250505056fea264697066735822122050515407660ff70330c31a37bfa770f871d0c81cce7180d5604a0874243a066564736f6c63430008140033",
  "linkReferences": {},
  "deployedLinkReferences": {}
}